{
  "contractName": "Registry",
  "abi": [
    {
      "constant": true,
      "inputs": [
        {
          "name": "identifier",
          "type": "string"
        }
      ],
      "name": "getRecordsFor",
      "outputs": [
        {
          "components": [
            {
              "name": "owner",
              "type": "address"
            },
            {
              "name": "createdTs",
              "type": "uint256"
            },
            {
              "name": "url",
              "type": "string"
            },
            {
              "name": "hash",
              "type": "string"
            },
            {
              "name": "recipient",
              "type": "string"
            },
            {
              "name": "canUpdate",
              "type": "bool"
            },
            {
              "name": "canTransfer",
              "type": "bool"
            },
            {
              "name": "canUnregister",
              "type": "bool"
            }
          ],
          "name": "returnedRecords",
          "type": "tuple[]"
        }
      ],
      "payable": false,
      "stateMutability": "view",
      "type": "function"
    },
    {
      "constant": true,
      "inputs": [
        {
          "name": "url",
          "type": "string"
        }
      ],
      "name": "getRecord",
      "outputs": [
        {
          "name": "owner",
          "type": "address"
        },
        {
          "name": "createdTs",
          "type": "uint256"
        },
        {
          "name": "returnUrl",
          "type": "string"
        },
        {
          "name": "hash",
          "type": "string"
        },
        {
          "name": "recipient",
          "type": "string"
        },
        {
          "name": "canUpdate",
          "type": "bool"
        },
        {
          "name": "canTransfer",
          "type": "bool"
        },
        {
          "name": "canUnregister",
          "type": "bool"
        }
      ],
      "payable": false,
      "stateMutability": "view",
      "type": "function"
    },
    {
      "constant": true,
      "inputs": [
        {
          "name": "url",
          "type": "string"
        }
      ],
      "name": "getDomainOwner",
      "outputs": [
        {
          "name": "addr",
          "type": "address"
        }
      ],
      "payable": false,
      "stateMutability": "view",
      "type": "function"
    },
    {
      "constant": true,
      "inputs": [],
      "name": "recordsLength",
      "outputs": [
        {
          "name": "length",
          "type": "uint256"
        }
      ],
      "payable": false,
      "stateMutability": "view",
      "type": "function"
    },
    {
      "constant": true,
      "inputs": [
        {
          "name": "",
          "type": "uint256"
        }
      ],
      "name": "records",
      "outputs": [
        {
          "name": "owner",
          "type": "address"
        },
        {
          "name": "createdTs",
          "type": "uint256"
        },
        {
          "name": "url",
          "type": "string"
        },
        {
          "name": "hash",
          "type": "string"
        },
        {
          "name": "recipient",
          "type": "string"
        },
        {
          "name": "canUpdate",
          "type": "bool"
        },
        {
          "name": "canTransfer",
          "type": "bool"
        },
        {
          "name": "canUnregister",
          "type": "bool"
        }
      ],
      "payable": false,
      "stateMutability": "view",
      "type": "function"
    },
    {
      "constant": false,
      "inputs": [
        {
          "name": "url",
          "type": "string"
        },
        {
          "name": "hash",
          "type": "string"
        },
        {
          "name": "recipient",
          "type": "string"
        },
        {
          "name": "canUpdate",
          "type": "bool"
        },
        {
          "name": "canTransfer",
          "type": "bool"
        },
        {
          "name": "canUnregister",
          "type": "bool"
        }
      ],
      "name": "register",
      "outputs": [],
      "payable": false,
      "stateMutability": "nonpayable",
      "type": "function"
    },
    {
      "constant": false,
      "inputs": [
        {
          "name": "ownerDomainUrl",
          "type": "string"
        }
      ],
      "name": "registerOwnerDomain",
      "outputs": [],
      "payable": false,
      "stateMutability": "nonpayable",
      "type": "function"
    },
    {
      "constant": true,
      "inputs": [
        {
          "name": "url",
          "type": "string"
        }
      ],
      "name": "getIndexByUrl",
      "outputs": [
        {
          "name": "index",
          "type": "uint256"
        }
      ],
      "payable": false,
      "stateMutability": "view",
      "type": "function"
    },
    {
      "constant": true,
      "inputs": [
        {
          "name": "",
          "type": "uint256"
        }
      ],
      "name": "recycling",
      "outputs": [
        {
          "name": "",
          "type": "uint256"
        }
      ],
      "payable": false,
      "stateMutability": "view",
      "type": "function"
    },
    {
      "constant": false,
      "inputs": [
        {
          "name": "url",
          "type": "string"
        }
      ],
      "name": "unregister",
      "outputs": [],
      "payable": false,
      "stateMutability": "nonpayable",
      "type": "function"
    },
    {
      "constant": true,
      "inputs": [],
      "name": "myDomain",
      "outputs": [
        {
          "name": "domain",
          "type": "string"
        }
      ],
      "payable": false,
      "stateMutability": "view",
      "type": "function"
    },
    {
      "constant": true,
      "inputs": [],
      "name": "numRecords",
      "outputs": [
        {
          "name": "",
          "type": "uint256"
        }
      ],
      "payable": false,
      "stateMutability": "view",
      "type": "function"
    },
    {
      "constant": true,
      "inputs": [
        {
          "name": "",
          "type": "address"
        }
      ],
      "name": "ownerDomain",
      "outputs": [
        {
          "name": "",
          "type": "string"
        }
      ],
      "payable": false,
      "stateMutability": "view",
      "type": "function"
    },
    {
      "constant": true,
      "inputs": [
        {
          "name": "url",
          "type": "string"
        }
      ],
      "name": "isRegistered",
      "outputs": [
        {
          "name": "",
          "type": "bool"
        }
      ],
      "payable": false,
      "stateMutability": "view",
      "type": "function"
    },
    {
      "constant": true,
      "inputs": [
        {
          "name": "addr",
          "type": "address"
        }
      ],
      "name": "getRecordsMadeBy",
      "outputs": [
        {
          "components": [
            {
              "name": "owner",
              "type": "address"
            },
            {
              "name": "createdTs",
              "type": "uint256"
            },
            {
              "name": "url",
              "type": "string"
            },
            {
              "name": "hash",
              "type": "string"
            },
            {
              "name": "recipient",
              "type": "string"
            },
            {
              "name": "canUpdate",
              "type": "bool"
            },
            {
              "name": "canTransfer",
              "type": "bool"
            },
            {
              "name": "canUnregister",
              "type": "bool"
            }
          ],
          "name": "returnedRecords",
          "type": "tuple[]"
        }
      ],
      "payable": false,
      "stateMutability": "view",
      "type": "function"
    },
    {
      "constant": false,
      "inputs": [
        {
          "name": "url",
          "type": "string"
        },
        {
          "name": "hash",
          "type": "string"
        }
      ],
      "name": "update",
      "outputs": [],
      "payable": false,
      "stateMutability": "nonpayable",
      "type": "function"
    },
    {
      "constant": false,
      "inputs": [
        {
          "name": "url",
          "type": "string"
        },
        {
          "name": "newOwner",
          "type": "address"
        }
      ],
      "name": "transfer",
      "outputs": [],
      "payable": false,
      "stateMutability": "nonpayable",
      "type": "function"
    },
    {
      "inputs": [],
      "payable": false,
      "stateMutability": "nonpayable",
      "type": "constructor"
    }
  ],
  "bytecode": "0x606060405234156200001057600080fd5b600580548091906001016200002691906200002d565b5062000199565b8154818355818115116200005d576006028160060283600052602060002091820191016200005c919062000062565b5b505050565b6200012291905b808211156200011e57600080820160006101000a81549073ffffffffffffffffffffffffffffffffffffffff02191690556001820160009055600282016000620000b4919062000125565b600382016000620000c6919062000125565b600482016000620000d8919062000125565b6005820160006101000a81549060ff02191690556005820160016101000a81549060ff02191690556005820160026101000a81549060ff02191690555060060162000069565b5090565b90565b50805460018160011615610100020316600290046000825580601f106200014d57506200016e565b601f0160209004906000526020600020908101906200016d919062000171565b5b50565b6200019691905b808211156200019257600081600090555060010162000178565b5090565b90565b61358580620001a96000396000f3006060604052600436106100f1576000357c0100000000000000000000000000000000000000000000000000000000900463ffffffff168063116545cf146100f657806311dd8845146101a357806325970115146103ac5780633048c2561461044957806334461067146104725780634eeacd901461069857806358c8dcc01461079c5780635dc28cfd146107f95780636534eb761461086a5780636598a1ae146108a1578063a62acf67146108fe578063b5d1990d1461098c578063bdf1cfdd146109b5578063c822d7f014610a67578063ca9ca1c914610adc578063f4c84d1914610b65578063fbf58b3e14610c05575b600080fd5b341561010157600080fd5b610151600480803590602001908201803590602001908080601f01602080910402602001604051908101604052809392919081815260200183838082843782019150505050505091905050610c81565b60405180806020018281038252838181518152602001915080516000925b81841015610192578284906020019060200201518152602001926001019261016f565b925050509250505060405180910390f35b34156101ae57600080fd5b6101fe600480803590602001908201803590602001908080601f01602080910402602001604051908101604052809392919081815260200183838082843782019150505050505091905050611064565b604051808973ffffffffffffffffffffffffffffffffffffffff1673ffffffffffffffffffffffffffffffffffffffff16815260200188815260200180602001806020018060200187151515158152602001861515151581526020018515151515815260200184810384528a818151815260200191508051906020019080838360005b8381101561029c578082015181840152602081019050610281565b50505050905090810190601f1680156102c95780820380516001836020036101000a031916815260200191505b50848103835289818151815260200191508051906020019080838360005b838110156103025780820151818401526020810190506102e7565b50505050905090810190601f16801561032f5780820380516001836020036101000a031916815260200191505b50848103825288818151815260200191508051906020019080838360005b8381101561036857808201518184015260208101905061034d565b50505050905090810190601f1680156103955780820380516001836020036101000a031916815260200191505b509b50505050505050505050505060405180910390f35b34156103b757600080fd5b610407600480803590602001908201803590602001908080601f016020809104026020016040519081016040528093929190818152602001838380828437820191505050505050919050506114a2565b604051808273ffffffffffffffffffffffffffffffffffffffff1673ffffffffffffffffffffffffffffffffffffffff16815260200191505060405180910390f35b341561045457600080fd5b61045c611537565b6040518082815260200191505060405180910390f35b341561047d57600080fd5b6104936004808035906020019091905050611544565b604051808973ffffffffffffffffffffffffffffffffffffffff1673ffffffffffffffffffffffffffffffffffffffff16815260200188815260200180602001806020018060200187151515158152602001861515151581526020018515151515815260200184810384528a81815460018160011615610100020316600290048152602001915080546001816001161561010002031660029004801561057a5780601f1061054f5761010080835404028352916020019161057a565b820191906000526020600020905b81548152906001019060200180831161055d57829003601f168201915b50508481038352898181546001816001161561010002031660029004815260200191508054600181600116156101000203166002900480156105fd5780601f106105d2576101008083540402835291602001916105fd565b820191906000526020600020905b8154815290600101906020018083116105e057829003601f168201915b50508481038252888181546001816001161561010002031660029004815260200191508054600181600116156101000203166002900480156106805780601f1061065557610100808354040283529160200191610680565b820191906000526020600020905b81548152906001019060200180831161066357829003601f168201915b50509b50505050505050505050505060405180910390f35b34156106a357600080fd5b61079a600480803590602001908201803590602001908080601f0160208091040260200160405190810160405280939291908181526020018383808284378201915050505050509190803590602001908201803590602001908080601f0160208091040260200160405190810160405280939291908181526020018383808284378201915050505050509190803590602001908201803590602001908080601f016020809104026020016040519081016040528093929190818152602001838380828437820191505050505050919080351515906020019091908035151590602001909190803515159060200190919050506115df565b005b34156107a757600080fd5b6107f7600480803590602001908201803590602001908080601f01602080910402602001604051908101604052809392919081815260200183838082843782019150505050505091905050611c50565b005b341561080457600080fd5b610854600480803590602001908201803590602001908080601f01602080910402602001604051908101604052809392919081815260200183838082843782019150505050505091905050611e23565b6040518082815260200191505060405180910390f35b341561087557600080fd5b61088b6004808035906020019091905050611e97565b6040518082815260200191505060405180910390f35b34156108ac57600080fd5b6108fc600480803590602001908201803590602001908080601f01602080910402602001604051908101604052809392919081815260200183838082843782019150505050505091905050611ebb565b005b341561090957600080fd5b610911612627565b6040518080602001828103825283818151815260200191508051906020019080838360005b83811015610951578082015181840152602081019050610936565b50505050905090810190601f16801561097e5780820380516001836020036101000a031916815260200191505b509250505060405180910390f35b341561099757600080fd5b61099f61270c565b6040518082815260200191505060405180910390f35b34156109c057600080fd5b6109ec600480803573ffffffffffffffffffffffffffffffffffffffff16906020019091905050612712565b6040518080602001828103825283818151815260200191508051906020019080838360005b83811015610a2c578082015181840152602081019050610a11565b50505050905090810190601f168015610a595780820380516001836020036101000a031916815260200191505b509250505060405180910390f35b3415610a7257600080fd5b610ac2600480803590602001908201803590602001908080601f016020809104026020016040519081016040528093929190818152602001838380828437820191505050505050919050506127c2565b604051808215151515815260200191505060405180910390f35b3415610ae757600080fd5b610b13600480803573ffffffffffffffffffffffffffffffffffffffff1690602001909190505061283a565b60405180806020018281038252838181518152602001915080516000925b81841015610b545782849060200190602002015181526020019260010192610b31565b925050509250505060405180910390f35b3415610b7057600080fd5b610c03600480803590602001908201803590602001908080601f0160208091040260200160405190810160405280939291908181526020018383808284378201915050505050509190803590602001908201803590602001908080601f01602080910402602001604051908101604052809392919081815260200183838082843782019150505050505091905050612bf1565b005b3415610c1057600080fd5b610c7f600480803590602001908201803590602001908080601f0160208091040260200160405190810160405280939291908181526020018383808284378201915050505050509190803573ffffffffffffffffffffffffffffffffffffffff16906020019091905050612ea3565b005b610c89613210565b610c91613224565b60006002846040518082805190602001908083835b602083101515610ccb5780518252602082019150602081019050602083039250610ca6565b6001836020036101000a0380198251168184511680821785525050505050509050019150509081526020016040518091039020805480602002602001604051908101604052809291908181526020018280548015610d4857602002820191906000526020600020905b815481526020019060010190808311610d34575b50505050509150600090505b815181101561105d5760058282815181101515610d6d57fe5b90602001906020020151815481101515610d8357fe5b906000526020600020906006020161010060405190810160405290816000820160009054906101000a900473ffffffffffffffffffffffffffffffffffffffff1673ffffffffffffffffffffffffffffffffffffffff1673ffffffffffffffffffffffffffffffffffffffff16815260200160018201548152602001600282018054600181600116156101000203166002900480601f016020809104026020016040519081016040528092919081815260200182805460018160011615610100020316600290048015610e975780601f10610e6c57610100808354040283529160200191610e97565b820191906000526020600020905b815481529060010190602001808311610e7a57829003601f168201915b50505050508152602001600382018054600181600116156101000203166002900480601f016020809104026020016040519081016040528092919081815260200182805460018160011615610100020316600290048015610f395780601f10610f0e57610100808354040283529160200191610f39565b820191906000526020600020905b815481529060010190602001808311610f1c57829003601f168201915b50505050508152602001600482018054600181600116156101000203166002900480601f016020809104026020016040519081016040528092919081815260200182805460018160011615610100020316600290048015610fdb5780601f10610fb057610100808354040283529160200191610fdb565b820191906000526020600020905b815481529060010190602001808311610fbe57829003601f168201915b505050505081526020016005820160009054906101000a900460ff161515151581526020016005820160019054906101000a900460ff161515151581526020016005820160029054906101000a900460ff161515151581525050838281518110151561104357fe5b906020019060200201819052508080600101915050610d54565b5050919050565b60008061106f613238565b611077613238565b61107f613238565b60008060008089600080826040518082805190602001908083835b6020831015156110bf578051825260208201915060208101905060208303925061109a565b6001836020036101000a0380198251168184511680821785525050505050509050019150509081526020016040518091039020541415151561110057600080fd5b60008b6040518082805190602001908083835b6020831015156111385780518252602082019150602081019050602083039250611113565b6001836020036101000a038019825116818451168082178552505050505050905001915050908152602001604051809103902054915060058281548110151561117d57fe5b906000526020600020906006020160000160009054906101000a900473ffffffffffffffffffffffffffffffffffffffff1699506005828154811015156111c057fe5b90600052602060002090600602016001015498506005828154811015156111e357fe5b90600052602060002090600602016002018054600181600116156101000203166002900480601f0160208091040260200160405190810160405280929190818152602001828054600181600116156101000203166002900480156112885780601f1061125d57610100808354040283529160200191611288565b820191906000526020600020905b81548152906001019060200180831161126b57829003601f168201915b5050505050975060058281548110151561129e57fe5b90600052602060002090600602016003018054600181600116156101000203166002900480601f0160208091040260200160405190810160405280929190818152602001828054600181600116156101000203166002900480156113435780601f1061131857610100808354040283529160200191611343565b820191906000526020600020905b81548152906001019060200180831161132657829003601f168201915b5050505050965060058281548110151561135957fe5b90600052602060002090600602016004018054600181600116156101000203166002900480601f0160208091040260200160405190810160405280929190818152602001828054600181600116156101000203166002900480156113fe5780601f106113d3576101008083540402835291602001916113fe565b820191906000526020600020905b8154815290600101906020018083116113e157829003601f168201915b5050505050955060058281548110151561141457fe5b906000526020600020906006020160050160009054906101000a900460ff16945060058281548110151561144457fe5b906000526020600020906006020160050160019054906101000a900460ff16935060058281548110151561147457fe5b906000526020600020906006020160050160029054906101000a900460ff1692505050919395975091939597565b60006004826040518082805190602001908083835b6020831015156114dc57805182526020820191506020810190506020830392506114b7565b6001836020036101000a038019825116818451168082178552505050505050905001915050908152602001604051809103902060009054906101000a900473ffffffffffffffffffffffffffffffffffffffff169050919050565b6000600580549050905090565b60058181548110151561155357fe5b90600052602060002090600602016000915090508060000160009054906101000a900473ffffffffffffffffffffffffffffffffffffffff16908060010154908060020190806003019080600401908060050160009054906101000a900460ff16908060050160019054906101000a900460ff16908060050160029054906101000a900460ff16905088565b6115e761324c565b600087600080826040518082805190602001908083835b60208310151561162357805182526020820191506020810190506020830392506115fe565b6001836020036101000a03801982511681845116808217855250505050505090500191505090815260200160405180910390205414151561166357600080fd5b604051806000019050604051809103902060001916600360003373ffffffffffffffffffffffffffffffffffffffff1673ffffffffffffffffffffffffffffffffffffffff16815260200190815260200160002060405180828054600181600116156101000203166002900480156117125780601f106116f0576101008083540402835291820191611712565b820191906000526020600020905b8154815290600101906020018083116116fe575b50509150506040518091039020600019161415151561173057600080fd5b4283602001818152505033836000019073ffffffffffffffffffffffffffffffffffffffff16908173ffffffffffffffffffffffffffffffffffffffff1681525050888360400181905250878360600181905250868360800181905250858360a0019015159081151581525050848360c0019015159081151581525050838360e0019015159081151581525050600580548060010182816117d191906132c0565b9160005260206000209060060201600085909190915060008201518160000160006101000a81548173ffffffffffffffffffffffffffffffffffffffff021916908373ffffffffffffffffffffffffffffffffffffffff1602179055506020820151816001015560408201518160020190805190602001906118549291906132f2565b5060608201518160030190805190602001906118719291906132f2565b50608082015181600401908051906020019061188e9291906132f2565b5060a08201518160050160006101000a81548160ff02191690831515021790555060c08201518160050160016101000a81548160ff02191690831515021790555060e08201518160050160026101000a81548160ff02191690831515021790555050505060016005805490500391506000821415611a47576005805480600101828161191a91906132c0565b9160005260206000209060060201600085909190915060008201518160000160006101000a81548173ffffffffffffffffffffffffffffffffffffffff021916908373ffffffffffffffffffffffffffffffffffffffff16021790555060208201518160010155604082015181600201908051906020019061199d9291906132f2565b5060608201518160030190805190602001906119ba9291906132f2565b5060808201518160040190805190602001906119d79291906132f2565b5060a08201518160050160006101000a81548160ff02191690831515021790555060c08201518160050160016101000a81548160ff02191690831515021790555060e08201518160050160026101000a81548160ff02191690831515021790555050505060016005805490500391505b8160008a6040518082805190602001908083835b602083101515611a805780518252602082019150602081019050602083039250611a5b565b6001836020036101000a038019825116818451168082178552505050505050905001915050908152602001604051809103902081905550600160003373ffffffffffffffffffffffffffffffffffffffff1673ffffffffffffffffffffffffffffffffffffffff1681526020019081526020016000208054806001018281611b089190613372565b916000526020600020900160008490919091505550604051806000019050604051809103902060001916876040518082805190602001908083835b602083101515611b685780518252602082019150602081019050602083039250611b43565b6001836020036101000a038019825116818451168082178552505050505050905001915050604051809103902060001916141515611c33576002876040518082805190602001908083835b602083101515611bd85780518252602082019150602081019050602083039250611bb3565b6001836020036101000a03801982511681845116808217855250505050505090500191505090815260200160405180910390208054806001018281611c1d9190613372565b9160005260206000209001600084909190915055505b600660008154809291906001019190505550505050505050505050565b6004600360003373ffffffffffffffffffffffffffffffffffffffff1673ffffffffffffffffffffffffffffffffffffffff1681526020019081526020016000206040518082805460018160011615610100020316600290048015611cec5780601f10611cca576101008083540402835291820191611cec565b820191906000526020600020905b815481529060010190602001808311611cd8575b5050915050908152602001604051809103902060006101000a81549073ffffffffffffffffffffffffffffffffffffffff021916905580600360003373ffffffffffffffffffffffffffffffffffffffff1673ffffffffffffffffffffffffffffffffffffffff1681526020019081526020016000209080519060200190611d7592919061339e565b50336004826040518082805190602001908083835b602083101515611daf5780518252602082019150602081019050602083039250611d8a565b6001836020036101000a038019825116818451168082178552505050505050905001915050908152602001604051809103902060006101000a81548173ffffffffffffffffffffffffffffffffffffffff021916908373ffffffffffffffffffffffffffffffffffffffff16021790555050565b600080826040518082805190602001908083835b602083101515611e5c5780518252602082019150602081019050602083039250611e37565b6001836020036101000a0380198251168184511680821785525050505050509050019150509081526020016040518091039020549050919050565b600781815481101515611ea657fe5b90600052602060002090016000915090505481565b6000611ec561324c565b82600080826040518082805190602001908083835b602083101515611eff5780518252602082019150602081019050602083039250611eda565b6001836020036101000a03801982511681845116808217855250505050505090500191505090815260200160405180910390205414151515611f4057600080fd5b833373ffffffffffffffffffffffffffffffffffffffff1660056000836040518082805190602001908083835b602083101515611f925780518252602082019150602081019050602083039250611f6d565b6001836020036101000a038019825116818451168082178552505050505050905001915050908152602001604051809103902054815481101515611fd257fe5b906000526020600020906006020160000160009054906101000a900473ffffffffffffffffffffffffffffffffffffffff1673ffffffffffffffffffffffffffffffffffffffff1614151561202657600080fd5b6000856040518082805190602001908083835b60208310151561205e5780518252602082019150602081019050602083039250612039565b6001836020036101000a03801982511681845116808217855250505050505090500191505090815260200160405180910390205493506005848154811015156120a357fe5b906000526020600020906006020161010060405190810160405290816000820160009054906101000a900473ffffffffffffffffffffffffffffffffffffffff1673ffffffffffffffffffffffffffffffffffffffff1673ffffffffffffffffffffffffffffffffffffffff16815260200160018201548152602001600282018054600181600116156101000203166002900480601f0160208091040260200160405190810160405280929190818152602001828054600181600116156101000203166002900480156121b75780601f1061218c576101008083540402835291602001916121b7565b820191906000526020600020905b81548152906001019060200180831161219a57829003601f168201915b50505050508152602001600382018054600181600116156101000203166002900480601f0160208091040260200160405190810160405280929190818152602001828054600181600116156101000203166002900480156122595780601f1061222e57610100808354040283529160200191612259565b820191906000526020600020905b81548152906001019060200180831161223c57829003601f168201915b50505050508152602001600482018054600181600116156101000203166002900480601f0160208091040260200160405190810160405280929190818152602001828054600181600116156101000203166002900480156122fb5780601f106122d0576101008083540402835291602001916122fb565b820191906000526020600020905b8154815290600101906020018083116122de57829003601f168201915b505050505081526020016005820160009054906101000a900460ff161515151581526020016005820160019054906101000a900460ff161515151581526020016005820160029054906101000a900460ff1615151515815250509250600115158360e00151151514151561236e57600080fd5b6123ba60016000856000015173ffffffffffffffffffffffffffffffffffffffff1673ffffffffffffffffffffffffffffffffffffffff1681526020019081526020016000208561311a565b60405180600001905060405180910390206000191683608001516040518082805190602001908083835b60208310151561240957805182526020820191506020810190506020830392506123e4565b6001836020036101000a0380198251168184511680821785525050505050509050019150506040518091039020600019161415156124ba576124b9600284608001516040518082805190602001908083835b602083101515612480578051825260208201915060208101905060208303925061245b565b6001836020036101000a03801982511681845116808217855250505050505090500191505090815260200160405180910390208561311a565b5b6005848154811015156124c957fe5b9060005260206000209060060201600080820160006101000a81549073ffffffffffffffffffffffffffffffffffffffff02191690556001820160009055600282016000612517919061341e565b600382016000612527919061341e565b600482016000612537919061341e565b6005820160006101000a81549060ff02191690556005820160016101000a81549060ff02191690556005820160026101000a81549060ff021916905550506000856040518082805190602001908083835b6020831015156125ad5780518252602082019150602081019050602083039250612588565b6001836020036101000a038019825116818451168082178552505050505050905001915050908152602001604051809103902060009055600660008154809291906001900391905055506007805480600101828161260b9190613372565b9160005260206000209001600086909190915055505050505050565b61262f613238565b600360003373ffffffffffffffffffffffffffffffffffffffff1673ffffffffffffffffffffffffffffffffffffffff1681526020019081526020016000208054600181600116156101000203166002900480601f0160208091040260200160405190810160405280929190818152602001828054600181600116156101000203166002900480156127025780601f106126d757610100808354040283529160200191612702565b820191906000526020600020905b8154815290600101906020018083116126e557829003601f168201915b5050505050905090565b60065481565b60036020528060005260406000206000915090508054600181600116156101000203166002900480601f0160208091040260200160405190810160405280929190818152602001828054600181600116156101000203166002900480156127ba5780601f1061278f576101008083540402835291602001916127ba565b820191906000526020600020905b81548152906001019060200180831161279d57829003601f168201915b505050505081565b6000806000836040518082805190602001908083835b6020831015156127fd57805182526020820191506020810190506020830392506127d8565b6001836020036101000a03801982511681845116808217855250505050505090500191505090815260200160405180910390205414159050919050565b612842613210565b61284a613224565b6000600160008573ffffffffffffffffffffffffffffffffffffffff1673ffffffffffffffffffffffffffffffffffffffff1681526020019081526020016000208054806020026020016040519081016040528092919081815260200182805480156128d557602002820191906000526020600020905b8154815260200190600101908083116128c1575b50505050509150600090505b8151811015612bea57600582828151811015156128fa57fe5b9060200190602002015181548110151561291057fe5b906000526020600020906006020161010060405190810160405290816000820160009054906101000a900473ffffffffffffffffffffffffffffffffffffffff1673ffffffffffffffffffffffffffffffffffffffff1673ffffffffffffffffffffffffffffffffffffffff16815260200160018201548152602001600282018054600181600116156101000203166002900480601f016020809104026020016040519081016040528092919081815260200182805460018160011615610100020316600290048015612a245780601f106129f957610100808354040283529160200191612a24565b820191906000526020600020905b815481529060010190602001808311612a0757829003601f168201915b50505050508152602001600382018054600181600116156101000203166002900480601f016020809104026020016040519081016040528092919081815260200182805460018160011615610100020316600290048015612ac65780601f10612a9b57610100808354040283529160200191612ac6565b820191906000526020600020905b815481529060010190602001808311612aa957829003601f168201915b50505050508152602001600482018054600181600116156101000203166002900480601f016020809104026020016040519081016040528092919081815260200182805460018160011615610100020316600290048015612b685780601f10612b3d57610100808354040283529160200191612b68565b820191906000526020600020905b815481529060010190602001808311612b4b57829003601f168201915b505050505081526020016005820160009054906101000a900460ff161515151581526020016005820160019054906101000a900460ff161515151581526020016005820160029054906101000a900460ff1615151515815250508382815181101515612bd057fe5b9060200190602002018190525080806001019150506128e1565b5050919050565b81600080826040518082805190602001908083835b602083101515612c2b5780518252602082019150602081019050602083039250612c06565b6001836020036101000a03801982511681845116808217855250505050505090500191505090815260200160405180910390205414151515612c6c57600080fd5b823373ffffffffffffffffffffffffffffffffffffffff1660056000836040518082805190602001908083835b602083101515612cbe5780518252602082019150602081019050602083039250612c99565b6001836020036101000a038019825116818451168082178552505050505050905001915050908152602001604051809103902054815481101515612cfe57fe5b906000526020600020906006020160000160009054906101000a900473ffffffffffffffffffffffffffffffffffffffff1673ffffffffffffffffffffffffffffffffffffffff16141515612d5257600080fd5b6001151560056000866040518082805190602001908083835b602083101515612d905780518252602082019150602081019050602083039250612d6b565b6001836020036101000a038019825116818451168082178552505050505050905001915050908152602001604051809103902054815481101515612dd057fe5b906000526020600020906006020160050160009054906101000a900460ff161515141515612dfd57600080fd5b8260056000866040518082805190602001908083835b602083101515612e385780518252602082019150602081019050602083039250612e13565b6001836020036101000a038019825116818451168082178552505050505050905001915050908152602001604051809103902054815481101515612e7857fe5b90600052602060002090600602016003019080519060200190612e9c92919061339e565b5050505050565b600082600080826040518082805190602001908083835b602083101515612edf5780518252602082019150602081019050602083039250612eba565b6001836020036101000a03801982511681845116808217855250505050505090500191505090815260200160405180910390205414151515612f2057600080fd5b833373ffffffffffffffffffffffffffffffffffffffff1660056000836040518082805190602001908083835b602083101515612f725780518252602082019150602081019050602083039250612f4d565b6001836020036101000a038019825116818451168082178552505050505050905001915050908152602001604051809103902054815481101515612fb257fe5b906000526020600020906006020160000160009054906101000a900473ffffffffffffffffffffffffffffffffffffffff1673ffffffffffffffffffffffffffffffffffffffff1614151561300657600080fd5b6000856040518082805190602001908083835b60208310151561303e5780518252602082019150602081019050602083039250613019565b6001836020036101000a03801982511681845116808217855250505050505090500191505090815260200160405180910390205492506001151560058481548110151561308757fe5b906000526020600020906006020160050160019054906101000a900460ff1615151415156130b457600080fd5b836005848154811015156130c457fe5b906000526020600020906006020160000160006101000a81548173ffffffffffffffffffffffffffffffffffffffff021916908373ffffffffffffffffffffffffffffffffffffffff1602179055505050505050565b60008090505b82805490508110156131655781838281548110151561313b57fe5b906000526020600020900154141561315857613157838261316a565b5b8080600101915050613120565b505050565b600082805490508210151561317e5761320b565b828281548110151561318c57fe5b9060005260206000209001600090558190505b60018380549050038110156131f55782600182018154811015156131bf57fe5b90600052602060002090015483828154811015156131d957fe5b906000526020600020900181905550808060010191505061319f565b828054809190600190036132099190613372565b505b505050565b602060405190810160405280600081525090565b602060405190810160405280600081525090565b602060405190810160405280600081525090565b61010060405190810160405280600073ffffffffffffffffffffffffffffffffffffffff16815260200160008152602001613285613466565b8152602001613292613466565b815260200161329f613466565b81526020016000151581526020016000151581526020016000151581525090565b8154818355818115116132ed576006028160060283600052602060002091820191016132ec919061347a565b5b505050565b828054600181600116156101000203166002900490600052602060002090601f016020900481019282601f1061333357805160ff1916838001178555613361565b82800160010185558215613361579182015b82811115613360578251825591602001919060010190613345565b5b50905061336e9190613534565b5090565b815481835581811511613399578183600052602060002091820191016133989190613534565b5b505050565b828054600181600116156101000203166002900490600052602060002090601f016020900481019282601f106133df57805160ff191683800117855561340d565b8280016001018555821561340d579182015b8281111561340c5782518255916020019190600101906133f1565b5b50905061341a9190613534565b5090565b50805460018160011615610100020316600290046000825580601f106134445750613463565b601f0160209004906000526020600020908101906134629190613534565b5b50565b602060405190810160405280600081525090565b61353191905b8082111561352d57600080820160006101000a81549073ffffffffffffffffffffffffffffffffffffffff021916905560018201600090556002820160006134c8919061341e565b6003820160006134d8919061341e565b6004820160006134e8919061341e565b6005820160006101000a81549060ff02191690556005820160016101000a81549060ff02191690556005820160026101000a81549060ff021916905550600601613480565b5090565b90565b61355691905b8082111561355257600081600090555060010161353a565b5090565b905600a165627a7a72305820075cc8bfaadeecd169039c1d3dfd1a80c53023fc4139c658f419a7d54e822ac60029",
  "source": "pragma solidity ^0.4.17;\r\n\r\ncontract Registry {\r\n\r\n    function Registry() public\r\n    {\r\n        records.length++;\r\n    }\r\n\r\n    struct Record {\r\n        address owner;\r\n        uint createdTs;\r\n        string url;\r\n        string hash;\r\n        string recipient;\r\n        bool canUpdate;\r\n        bool canTransfer;\r\n        bool canUnregister;\r\n    }\r\n\r\n    // Record Lookup Maps\r\n    mapping(string => uint) byUrl;\r\n    function getIndexByUrl(string url) public view returns (uint index){\r\n        index = byUrl[url];\r\n    }\r\n    mapping(address => uint[]) byOwner;\r\n    mapping(string => uint[]) byRecipient;\r\n    \r\n    // Owner Lookup Maps\r\n    mapping(address => string) public ownerDomain;\r\n    function myDomain() public view returns(string domain){return ownerDomain[msg.sender];}\r\n    \r\n    mapping(string => address) domainOwner;\r\n    function getDomainOwner(string url) public view returns(address addr)\r\n    {\r\n        addr = domainOwner[url];\r\n    }\r\n\r\n    // Records  \r\n    Record[] public records;\r\n    function recordsLength() public view returns(uint length){length = records.length;}\r\n    \r\n    uint public numRecords;\r\n    uint[] public recycling;\r\n    \r\n    //Note: Require statements such as this do not refund gas, as they do not simulate an execution. Always check state before you invoke functions!\r\n    modifier recordMustExist(string url) {\r\n        //Require the location at url have a record.\r\n        require(byUrl[url] != 0);\r\n        _;\r\n    }\r\n    \r\n    modifier recordMustNotExist(string url) {\r\n        //Require the location at url be empty.\r\n        require(byUrl[url] == 0);\r\n        _;\r\n    }\r\n    \r\n    modifier ownerMustMatch(string url) {\r\n        //Require the owner be the one updating the record.\r\n        require(records[byUrl[url]].owner == msg.sender);\r\n        _;\r\n    }\r\n\r\n    // This is the function that actually insert a record. \r\n    function register(string url, string hash, string recipient, bool canUpdate, bool canTransfer, bool canUnregister) public recordMustNotExist(url) {\r\n        //Owner must be registered.\r\n        require(keccak256(ownerDomain[msg.sender]) != keccak256(\"\"));\r\n\r\n        Record memory record;\r\n        record.createdTs = now;\r\n        record.owner = msg.sender;\r\n        record.url = url;\r\n        record.hash = hash;\r\n        record.recipient = recipient;\r\n        record.canUpdate = canUpdate;\r\n        record.canTransfer = canTransfer;\r\n        record.canUnregister = canUnregister;\r\n        records.push(record);\r\n        \r\n        uint index = records.length - 1;\r\n        if (index == 0){\r\n            records.push(record);\r\n            index = records.length - 1;\r\n        }\r\n        byUrl[url] = index;\r\n        byOwner[msg.sender].push(index);\r\n        if (keccak256(recipient) != keccak256(\"\"))\r\n            byRecipient[recipient].push(index);\r\n        numRecords++;\r\n    }\r\n    \r\n    function registerOwnerDomain(string ownerDomainUrl) public {\r\n        delete domainOwner[ownerDomain[msg.sender]];\r\n        ownerDomain[msg.sender] = ownerDomainUrl;\r\n        domainOwner[ownerDomainUrl] = msg.sender;\r\n    }\r\n\r\n    // Updates the values of the given record.\r\n    function update(string url, string hash) public recordMustExist(url) ownerMustMatch(url) {\r\n        //Require the record be updateable.\r\n        require(records[byUrl[url]].canUpdate == true);\r\n        \r\n        records[byUrl[url]].hash = hash;\r\n    }\r\n\r\n    // Unregister a given record\r\n    function unregister(string url) public recordMustExist(url) ownerMustMatch(url){\r\n        uint index = byUrl[url];\r\n        Record memory record = records[index];\r\n        \r\n        //Require the record be unregisterable.\r\n        require(record.canUnregister == true);\r\n        \r\n        removeElement(byOwner[record.owner],index);\r\n        if (keccak256(record.recipient) != keccak256(\"\"))\r\n            removeElement(byRecipient[record.recipient],index);\r\n        delete records[index];\r\n        delete byUrl[url];\r\n        numRecords--;\r\n        recycling.push(index);\r\n    }\r\n    \r\n    // Transfer ownership of a given record.\r\n    function transfer(string url, address newOwner) public recordMustExist(url) ownerMustMatch(url){\r\n        uint index = byUrl[url];\r\n        \r\n        //Require the record be transferrable;\r\n        require(records[index].canTransfer == true);\r\n        \r\n        records[index].owner = newOwner;\r\n    }\r\n\r\n    // Tells whether a given key is registered.\r\n    function isRegistered(string url) public view returns(bool) \r\n    {\r\n        return byUrl[url] != 0;\r\n    }\r\n\r\n    function getRecord(string url) public view recordMustExist(url) returns(address owner, uint createdTs, string returnUrl, string hash, string recipient, bool canUpdate, bool canTransfer, bool canUnregister) \r\n    {\r\n        uint index = byUrl[url];\r\n        owner = records[index].owner;\r\n        createdTs = records[index].createdTs;\r\n        returnUrl = records[index].url;\r\n        hash = records[index].hash;\r\n        recipient = records[index].recipient;\r\n        canUpdate = records[index].canUpdate;\r\n        canTransfer = records[index].canTransfer;\r\n        canUnregister = records[index].canUnregister;\r\n    }\r\n    \r\n    function getRecordsFor(string identifier) public view returns(Record[] returnedRecords)\r\n    {\r\n        uint[] memory recordIndices = byRecipient[identifier];\r\n        for (uint i = 0;i < recordIndices.length;i++)\r\n            returnedRecords[i] = records[recordIndices[i]];\r\n    }\r\n    \r\n    function getRecordsMadeBy(address addr) public view returns(Record[] returnedRecords)\r\n    {\r\n        uint[] memory recordIndices = byOwner[addr];\r\n        for (uint i = 0;i < recordIndices.length;i++)\r\n            returnedRecords[i] = records[recordIndices[i]];\r\n    }\r\n\r\n    function removeElement(uint[] storage array, uint element) internal \r\n    {\r\n        for (uint i = 0;i < array.length;i++)\r\n            if (array[i] == element)\r\n                remove(array,i);\r\n    }\r\n    \r\n    // Remove an element from an array.\r\n    function remove(uint[] storage array, uint index) internal \r\n    {\r\n        if (index >= array.length) return;\r\n        delete array[index];\r\n        for (uint i = index;i < array.length - 1;i++)\r\n            array[i] = array[i+1];\r\n        array.length--;\r\n    }\r\n\r\n}",
  "sourcePath": "C:\\workspace\\cass-ethereum-registry\\contracts\\Registry.sol",
  "compiler": {
    "name": "solc",
    "version": "0.4.18+commit.9cf6e910.Emscripten.clang"
  },
  "schemaVersion": "1.0.1",
  "updatedAt": "2018-02-02T07:57:40.123Z"
}